:020000040800F2
:10000000F80600204501000825240008E511000835
:10001000A11D0008250F000867420008000000002D
:10002000000000000000000000000000752800082B
:10003000D10F000800000000AD2400088929000845
:100040005F0100085F0100085F0100085F01000810
:100050005F0100085F0100085F0100085F01000800
:100060005F0100085F0100085F0100085F010008F0
:100070005F0100085F0100085F0100085F010008E0
:100080005F0100085F0100085F0100085F010008D0
:100090005F0100085F0100085F0100085F010008C0
:1000A0005F0100085F0100085F0100082D2C0008B7
:1000B0005F0100085F0100085F0100085F010008A0
:1000C0005F0100085F0100085F0100085F01000890
:1000D0005F010008E1390008C13F00085F01000826
:1000E000F50F00085F0100085F0100085F010008CC
:1000F0005F0100085F0100085F0100085F01000860
:100100005F0100085F0100085F0100085F0100084F
:100110005F0100085F010008D52D00085F0100089D
:100120005F0100085F0100085F0100085F0100082F
:10013000DFF80CD000F0A6FC004800470D66000870
:10014000F80600200648804706480047FEE7FEE71D
:10015000FEE7FEE7FEE7FEE7FEE7FEE7FEE7FEE777
:100160008D290008310100082DE9F0410024061B0B
:10017000254671F1000605DA01240027D0EB0700BF
:1001800067EB0101161E73F1000605DA0027D2EBBA
:100190000702012567EB030300F04EFB86460E467F
:1001A00017469C46AC4204D00025D0EB050E65EB0B
:1001B000010624B10020D2EB000760EB030C70466F
:1001C00031463A466346BDE8F08140EA01039B07A9
:1001D00003D009E008C9121F08C0042AFAD203E0BC
:1001E00011F8013B00F8013B521EF9D27047D2B220
:1001F00001E000F8012B491EFBD270470022F6E710
:1002000010B513460A4604461946FFF7F0FF20468C
:1002100010BD30B504460020034600E05B1C93424D
:1002200003D2E05CCD5C401BF8D030BDF0B480EA76
:100230000102D40F4200B2EB410F02D2024608463F
:1002400011464A0042D0C30DDDB2C1F3C752AD1A08
:10025000202D35DAC1F3160141F4000204B15242F7
:10026000C5F1200602FA06F12A411044B3EBD05F33
:1002700023D0C4B1012DA0EBC35009DCF0BC4FF07A
:10028000004202EAC352DBB200F5000000F03FBBBF
:10029000400000F1807000EBC350A0F1807040EA94
:1002A000D170490009E0490841EAC071A0EBC35090
:1002B00000F50000400800EBC350F0BC00F01EBB8E
:1002C0006142012202EB4101001BF6E7F0BC7047DE
:1002D00081F00041AAE780F00040A7E780EA010230
:1002E00010B502F00043400022D04A001FD0010E9A
:1002F00001EB1261C0F35600C2F3560240F4000055
:1003000042F40002A0FB022000047F39140400D054
:10031000401C50EA124001D44000491EC2B20C06F3
:1003200004EBD010401C4008802A02D003E00020DB
:1003300010BD20F00100002900DA0020184310BD94
:1003400030B480EA010202F0004530F0004221F0B2
:10035000004013D090B1C30DD40DC2F31601C0F309
:100360001600E41A41F4000140F400027D34914289
:1003700001D3641C00E04900002C02DA30BC0020EC
:1003800070474FF400000023914201D3891A0343C0
:1003900040084FEA4101F7D151B1914202D14FF0EB
:1003A000004105E002D24FF0010101E06FF00101D0
:1003B00003EBC450284430BC00F0A0BA2DE9FE4F36
:1003C000804681EA0300C00F0C46009021F00041F6
:1003D00023F00045B8EB0200A94105D24046214672
:1003E00090461C460B46024623F00040104347D07F
:1003F000270DC7F30A00C3F30A510290401A019077
:1004000040286BDAC3F3130040F4801B0098924637
:1004100020B10023D2EB030A63EB0B0B0198594682
:10042000C0F14002504600F038FA06460D465046EC
:100430005946019A00F050FA10EB0800614100247F
:1004400087EA115284EAE7731A4340D0009A62B3F4
:10045000019A012A4FEA075215DC001B61EB0201E9
:100460004FF0004202EA0752CDE90042001C41F57C
:10047000801132462B4600F087FA03B0BDE8F08FBA
:1004800040462146F9E7001B61EB0201001C41F5E3
:10049000801300185B412018A2F5001747EB0301F9
:1004A00040EAD570B6196D4111E06D084FEA360685
:1004B00045EAC0754FEA0752001B61EB0201001CC0
:1004C00041F5801149084FEA300000195141324688
:1004D0002B4603B0BDE8F04F00F047BA0098012268
:1004E00040000023D0EB020263EBE073009821464A
:1004F0004FEAE074B8EB000061EB0401E9E783F038
:1005000000435BE781F0004158E72DE9FE4F81EAA7
:10051000030404F0004421F0004100944FF0000B6C
:1005200023F0004350EA01045ED052EA03045BD09A
:10053000C3F30A54C1F30A552C44A4F2F3340194D2
:10054000A0FB0254C1F3130141F48011C3F3130360
:1005500043F4801301FB024400FB034E840A970A14
:1005600044EA815447EA8357A4FB076802958D0A41
:1005700005FB07854FEA932C04FB0C542705029DCD
:100580004FEA065847EA1637B5EB08056EEB070C3D
:10059000870E920E47EA811742EA8312A7FB0201F7
:1005A000B6EB0B0164EB00042B0D43EA0C335E1831
:1005B00044EB1C50DA465146E7FB0201C5F3130435
:1005C0004FEA0B3343EA14534FEA0432019C43EAE7
:1005D0000603A4F10C040294009CCDE900B400F0E1
:1005E000D3F903B0BDE8F08F00200146F9E72DE90B
:1005F000F04D81EA030404F0004B21F0004514465D
:100600004FF0000A23F0004150EA050220D054EADE
:1006100001021DD0C5F30A570246C5F31303C1F307
:100620001300C1F30A5640F4801543F48013A7EB7E
:100630000608101BD64608F2FD3873EB050002D3FE
:1006400008F1010801E092185B41B8F1000F03DAEC
:1006500000200146BDE8F08D00204FF480110646D1
:1006600084460EE0171B73EB050705D3121B63EBE3
:10067000050306434CEA010C49084FEA3000921882
:100680005B4150EA0107EDD152EA030012D082EA41
:10069000040083EA0501084305D0101BAB4106D2D4
:1006A0000122002306E000224FF0004302E06FF039
:1006B000010253101AEB06004CEB085110EB0A0034
:1006C00041EB0B01BDE8F04D00F04FB9C10F80EADE
:1006D000E0700844CA079623002100F018B9962359
:1006E0000022114600F013B90EB5C10F80EAE07088
:1006F0000844CA07002140F233438DE80E000A4641
:100700000B4600F041F903B000BD0EB540F2334195
:1007100002910021CDE900110A460B4600F034F9A0
:1007200003B000BD00F0004220F00040C10DC0F356
:10073000160040F400007F2901DA00207047962956
:1007400003DCC1F19601C84001E096398840002AD7
:10075000F4D04042704720F00040C10DC0F31600B5
:1007600040F400007F2901DA00207047962903DC5D
:10077000C1F19601C8407047963988407047C1F36F
:100780000A5210B5C1F3130140F2FF3341F4801156
:100790009A4201DA002010BD40F233439A42A2F29D
:1007A000334203DC524200F087F810BD904010BD88
:1007B00000F0004230F000400AD0C10D01F5607138
:1007C000C0F3160042EA0151C208400711437047C6
:1007D00000200146704701F0004330B421F0004191
:1007E00050EA010206D00A0DA2F56072C1F31301AE
:1007F000002A02DC30BC00207047440F44EAC104E8
:10080000C100E01830BC00EBC25000F077B8000027
:10081000002801DBC0F10040002901DBC1F10041EB
:1008200081427047002801DBC0F10040002901DB54
:10083000C1F10041884270472DE9F05F0546002074
:1008400092469B4688460646814640241BE0284641
:1008500041464746224600F02FF853465A46C01AF2
:10086000914110D311461846224600F016F82D1A71
:1008700067EB01084F4622460120002100F00DF8E9
:1008800017EB00094E41201EA4F10104DFDC4846AD
:1008900031462A464346BDE8F09F202A04DB203A31
:1008A00000FA02F1002070479140C2F1200320FAC3
:1008B00003F3194390407047202A04DB203A21FAC1
:1008C00002F00021704721FA02F3D040C2F1200269
:1008D0009140084319467047202A06DBCB17203A7F
:1008E00041FA02F043EAE07306E041FA02F3D04035
:1008F000C2F1200291400843194670470029A8BF61
:100900007047401C490008BF20F00100704710B438
:10091000B0FA80FC00FA0CF050EA010404BF10BCED
:10092000704749B1CCF1200421FA04F411FA0CF11A
:1009300018BF012121430843A3EB0C01CB1D4FEA53
:1009400000614FEA102042BF002010BC704700EB4E
:10095000C35010440029A4BF10BC7047401C49007C
:1009600008BF20F0010010BC704710B5141E73F1D1
:10097000000408DA401C41F1000192185B411A435F
:1009800001D120F0010010BD2DE9F04D92469B46AB
:1009900011B1B1FA81F202E0B0FA80F22032904651
:1009A000FFF77BFF04460F4640EA0A0041EA0B01CD
:1009B00053465A46084313D0114653EA010019D052
:1009C000C8F140025046FFF777FF05460E465046F5
:1009D00059464246FFF761FF084305D0012004E075
:1009E00020463946BDE8F08D0020054346EAE07612
:1009F0002C4337430A986305E40AA0EB0800002261
:100A0000FD0A44EA47540A3002D500200146E9E7CE
:100A1000010510196941DDE9084500196941BDE882
:100A2000F04DA2E770B521F0004303430CD0C1F3B1
:100A30000A550024D5EB040564EB0403D617AD1A60
:100A4000B34102DB0020014670BD201841EB02518A
:100A500070BD000030B5041E71F1000404DB4FF0DE
:100A60000044404264EB0101141E73F1000405DBF5
:100A70001C464FF00043524263EB0403994208BF07
:100A8000904230BD064C074D06E0E06840F001039F
:100A900094E8070098471034AC42F6D3FFF74CFBBC
:100AA000A8980008C89800082DE9F04D00231A46C0
:100AB0001B1A8A4103DB00200146BDE8F08DC1F31B
:100AC0000A52C1F3130141F480154FF0000BD10716
:100AD00002D100186D41521E0027044640F2FF115A
:100AE000384601EB620A3E468046024600204FF43B
:100AF0008011FFF7E1FEC2197141BB1846EB0100FE
:100B0000B4EB030C75EB000C04D3E41A65EB0005A1
:100B100017460E46241908F101006D41804634281D
:100B2000E3DDF91946EB0600091BA84103D24FF09B
:100B3000FF32134601E0002213461BEB070046EB91
:100B40000A51BDE8F04DFFF710BF70B58C1810F8D2
:100B5000015B15F0070301D110F8013B2A1106D102
:100B600010F8012B03E010F8016B01F8016B5B1E1C
:100B7000F9D12B0705D40023521E0DD401F8013BF7
:100B8000FAE710F8013BCB1A921C03E013F8015B63
:100B900001F8015B521EF9D5A142D8D3002070BDE7
:100BA00010B5FA20B14908600CE0B148007801287E
:100BB00005D10020AF490860AC49086002E002207E
:100BC000AC490860A94800680028EEDC1420A74959
:100BD000086002E00020A7490860A44800680028D7
:100BE000F8DCFA20A14908601AE0A348C07801287F
:100BF00005D100209F4908609C49086010E09C488E
:100C00000078012809D100F08FF940F2DC531A4630
:100C10001946184600F0ECFD02E0022095490860F4
:100C2000924800680028E0DCC820904908601AE07B
:100C300092480078012805D100208E4908608B4930
:100C4000086010E08C48C078012809D100F07AF9DA
:100C500040F2DC531A461946184600F0C9FD02E07E
:100C6000012084490860814800680028E0DC1420E5
:100C70007E49086002E000207E4908607B480068E9
:100C80000028F8DCC820794908600CE07B484078EF
:100C9000012805D10020774908607449086002E006
:100CA000012074490860714800680028EEDC1420B7
:100CB0006E49086002E000206E4908606B480068D9
:100CC0000028F8DC4FF4FA70684908600CE06A48C4
:100CD000C078012805D10020664908606349086092
:100CE00002E0012063490860604800680028EEDCEB
:100CF00014205E49086002E000205E4908605B48FD
:100D000000680028F8DCC820584908601AE05B48F1
:100D10000078012805D10020564908605349086031
:100D200010E05548C078012809D100F00BF940F2D5
:100D3000DC531A461946184600F05AFD02E001201D
:100D40004C490860494800680028E0DCC820474951
:100D500008600CE049484078012805D10020454949
:100D600008604249086002E00120424908603F48AB
:100D700000680028EEDC14203C49086002E00020F6
:100D80003C490860394800680028F8DC4FF4FA70E4
:100D9000364908600CE03848C078012805D10020A9
:100DA000344908603149086002E001203149086097
:100DB0002E4800680028EEDC14202C49086002E070
:100DC00000202C490860294800680028F8DCC82069
:100DD000264908601AE029480078012805D100203A
:100DE000244908602149086010E02348C0780128A0
:100DF00009D100F0A7F840F2DC531A46194618460C
:100E000000F0F6FC02E001201A490860174800686B
:100E10000028E0DC1A480078632800D000BFC82012
:100E2000124908600CE015484078012805D10020DF
:100E3000104908600D49086002E001200D49086072
:100E40000A4800680028EEDC14200849086002E027
:100E5000002008490860054800680028F8DC0848B8
:100E60000078632800D000BF10BD00004C000020B7
:100E700020010020480000201C0100202401002047
:100E8000310000200146A1F130020A2A1AD2DFE81F
:100E900002F00507090B0D0F11131517002011E0C3
:100EA00001200FE002200DE003200BE0042009E008
:100EB000052007E0062005E0072003E0082001E008
:100EC000092000BF00BF704708B50121202001F0B4
:100ED000FFFA4FF48060ADF8000010208DF8030099
:100EE00003208DF802006946044800F0E3F84FF44F
:100EF0008061024800F072F908BD00000014014052
:100F000010B54FF48061064800F06AF94FF4FA70AA
:100F100000F060F84FF48061014800F05FF910BD07
:100F20000014014000BFFEE710B5012000F0C2FB35
:100F3000012000F0E1FB012000F000FC012000F0A6
:100F40001FFC10BD10B5002000F0B4FB002000F025
:100F5000D3FB002000F0F2FB002000F011FC10BDDC
:100F600010B5012000F0A6FB002000F0C5FB00201A
:100F700000F0E4FB012000F003FC10BD10B50020E0
:100F800000F098FB012000F0B7FB012000F0D6FB39
:100F9000002000F0F5FB10BD10B5012000F08AFB29
:100FA000002000F0A9FB012000F0C8FB002000F0A9
:100FB000E7FB10BD10B5002000F07CFB012000F025
:100FC0009BFB002000F0BAFB012000F0D9FB10BD14
:100FD000704700000549086002E00321044A1160DF
:100FE000024909680029F8DC704700004C00002025
:100FF0004800002010B54FF4805000F047F8012859
:1010000008D11B480068401C194908604FF4805003
:1010100000F036F84FF4005000F038F8012808D1FD
:1010200014480068401C134908604FF4005000F059
:1010300027F84FF4804000F029F8012808D10E4825
:101040000068401C0C4908604FF4804000F018F81C
:101050004FF4004000F01AF8012808D10748006852
:10106000401C064908604FF4004000F009F810BD2C
:10107000AC000020B0000020B4000020B800002028
:101080000149086070470000140401400146002037
:101090000022074B1B6803EA0102054B14331B684F
:1010A0000B4013B10AB1012000E00020704700009E
:1010B000000401402DE9F0410246002500260020F1
:1010C00000230024002791F803C00CF00F0591F8CD
:1010D00003C00CF0100CBCF1000F03D091F802C05B
:1010E0004CEA050591F800C0BCF1000F31D014683E
:1010F00000202BE04FF0010C0CFA00F3B1F800C017
:101100000CEA03069E4220D183004FF00F0C0CFA2C
:1011100003F7BC4305FA03FC4CEA040491F803C04E
:10112000BCF1280F06D14FF0010C0CFA00FCC2F8FC
:1011300014C00AE091F803C0BCF1480F05D14FF08C
:10114000010C0CFA00FCC2F810C0401C0828D1D3D6
:101150001460B1F800C0BCF1FF0F34DD546800200A
:101160002EE000F1080C4FF0010808FA0CF3B1F87A
:1011700000C00CEA03069E4221D183004FF00F0C01
:101180000CFA03F7BC4305FA03FC4CEA040491F89B
:1011900003C0BCF1280F05D100F1080C08FA0CF8C7
:1011A000C2F8148091F803C0BCF1480F07D100F1D8
:1011B000080C4FF0010808FA0CF8C2F81080401C27
:1011C0000828CED35460BDE8F08102460020936821
:1011D0000B400BB1012000E00020704741617047D7
:1011E0000161704700BFFEE708B50420ADF80000BC
:1011F00003208DF8020048208DF80300694602485C
:10120000FFF758FF08BD0000001C014008B5012091
:10121000ADF8000003208DF8020048208DF803008F
:1012200069460248FFF746FF08BD0000001C014068
:1012300008B50420ADF8000003208DF8020010204E
:101240008DF8030069460248FFF734FF08BD00002F
:10125000001C014008B50120ADF8000003208DF806
:10126000020010208DF8030069460248FFF722FFB4
:1012700008BD0000001C014010B5024801F0DAFF73
:10128000401C10BD002C014010B500200A49086028
:10129000FFF7CEFF00200949C1F88801022003F0C2
:1012A0009FFE012004490860022003F099FE0020FF
:1012B0000249C1F88C0110BD8C8123420080234279
:1012C00010B500200A490860FFF7C4FF0020094953
:1012D000C1F88001022003F083FE01200449086068
:1012E000022003F07DFE00200249C1F8840110BDF8
:1012F000848123420080234208B50121802001F02F
:10130000E7F80F20ADF8000010208DF8030003204F
:101310008DF8020069460448FFF7CCFE0F21024811
:10132000FFF75EFF08BD0000001C014010B5002063
:101330000A490860FFF77CFF01200949C1F88801CC
:10134000022003F04DFE012004490860022003F052
:1013500047FE00200249C1F88C0110BD8C81234258
:101360000080234210B500200A490860FFF772FF91
:1013700001200949C1F88001022003F031FE01205B
:1013800004490860022003F02BFE00200249C1F846
:10139000840110BD848123420080234270B505463C
:1013A00000260024FFF720FF00BF16E000201049B0
:1013B0000860022003F014FE01200E49C1F88C01E0
:1013C0006006040E0A488438006808B1601CC4B284
:1013D000012003F005FE701CC6B2082EE6DB15B92D
:1013E000FFF7A4FF01E0FFF74FFF204670BD0000AC
:1013F0008C8123420080234270B5054600260024DC
:10140000FFF704FF00BF16E000201049086002202B
:1014100003F0E6FD01200E49C1F884016006040EC8
:101420000A488438006808B1601CC4B2012003F087
:10143000D7FD701CC6B2082EE6DB15B9FFF792FF88
:1014400001E0FFF73DFF204670BD0000848123428C
:101450000080234270B504460025FFF7E9FE002016
:101460000F49086000BF17E0E0090D49091F086037
:101470006006040E022003F0B3FD01200949C1F803
:101480008C01022003F0ACFD002005490860022019
:1014900003F0A6FD681CC5B2082DE5DB70BD000099
:1014A0008C8123420080234270B504460025FFF75B
:1014B000D1FE00200F49086000BF17E0E0090D4988
:1014C000091F08606006040E022003F089FD012058
:1014D0000949C1F88401022003F082FD002005497A
:1014E0000860022003F07CFD681CC5B2082DE5DB16
:1014F00070BD0000848123420080234210B5FFF7B5
:1015000097FE0120094908600949C1F88C010520AE
:1015100003F066FD002005490860052003F060FD2A
:1015200000200349C1F88C0110BD000088812342CE
:101530000080234210B5FFF78DFE012009490860A5
:101540000949C1F88401052003F04AFD002005493E
:101550000860052003F044FD00200349C1F8840120
:1015600010BD0000808123420080234210B5FFF7A8
:101570005FFE0020084908600849C1F8880105207D
:1015800003F02EFD0120044908600449C1F88801D8
:10159000052003F025FD10BD8C81234200802342ED
:1015A00010B5FFF757FE0020084908600849C1F848
:1015B0008001052003F014FD01200449086004495E
:1015C000C1F88001052003F00BFD10BD848123428A
:1015D0000080234210B50024FFF706FE01200E49CB
:1015E000086003F0FDFC01200C49C1F88C0103F0F8
:1015F000F7FC07E0601CC4B2FA2C03DDFFF7B6FF6E
:10160000012010BD0448803800680028F2D102494A
:10161000091D086000BFF4E788812342008023424F
:1016200010B50024FFF7F2FD01200E49086003F019
:10163000D7FC01200C49C1F8840103F0D1FC07E07C
:10164000601CC4B2FA2C03DDFFF7AAFF012010BD15
:101650000448803800680028F2D10249091D08605A
:1016600000BFF4E7808123420080234201480078D4
:101670007047000012010020014800787047000008
:10168000130100200448007820B1002002490870AE
:10169000012070470020FCE710010020044800787A
:1016A00020B1002002490870012070470020FCE7AB
:1016B0001101002010B504463CB901210D48FFF787
:1016C0008FFD02210B48FFF789FD012C07D1022174
:1016D0000848FFF785FD01210648FFF77FFD022C32
:1016E00007D101210348FFF779FD02210148FFF7E7
:1016F00075FD10BD0014014010B504463CB904212D
:101700000D48FFF76DFD08210B48FFF767FD012C21
:1017100007D108210848FFF763FD04210648FFF7B9
:101720005DFD022C07D104210348FFF757FD082176
:101730000148FFF753FD10BD0014014010B50446E9
:101740003CB910210D48FFF74BFD20210B48FFF756
:1017500045FD012C07D120210848FFF741FD10214C
:101760000648FFF73BFD022C07D110210348FFF785
:1017700035FD20210148FFF731FD10BD0014014067
:1017800010B504463CB940210D48FFF729FD8021E2
:101790000B48FFF723FD012C07D180210848FFF7F4
:1017A0001FFD40210648FFF719FD022C07D14021FB
:1017B0000348FFF713FD80210148FFF70FFD10BD1F
:1017C0000014014008B50121202000F081FEFF2017
:1017D000ADF8000010208DF8030003208DF8020002
:1017E00069460248FFF766FC08BD0000001401408E
:1017F00030B5044D28802D1D29802D1D2A802D1DDA
:101800002B8030BD3434014010B500200E490860F3
:101810000E48006820F470400C49086008460068D3
:1018200040F44050086000200949C1F8AC0100F0C4
:1018300011F801200449086000F00CF80020044968
:10184000C1F8A80110BD0000A8812142040C01408C
:101850000080214210B5022003F0C2FB10BD000041
:1018600008B50121082000F033FE4FF44060ADF8C8
:10187000000010208DF8030003208DF80200694657
:101880000448FFF717FC4FF440610248FFF7A8FC3B
:1018900008BD0000000C014010B500200E49086092
:1018A0000E48006820F470400C4908600846006843
:1018B00040F44050086001200949C1F8AC01FFF72D
:1018C000C9FF012004490860FFF7C4FF0020044954
:1018D000C1F8A80110BD0000A8812142040C0140FC
:1018E0000080214270B5054600241648006820F4A7
:1018F0007040144908600846006840F400400860E1
:10190000002614E0002010490860FFF7A3FF012023
:101910000E49C1F8A8016006040E0B487C38006827
:1019200008B1601CC4B2FFF795FF701CC6B2082E48
:10193000E8DB15B9FFF7B0FF01E0FFF765FF2046D0
:1019400070BD0000040C0140A881214200802142AA
:1019500070B504461248006820F4704010490860D1
:101960000846006840F44050086000200D490860B7
:10197000002512E0E0090B49091D08606006040E0D
:1019800001200949C1F8A801FFF764FF00200549BB
:101990000860FFF75FFF681CC5B2082DEADB70BD69
:1019A000040C0140A88121420080214210B50E485C
:1019B000006820F470400C4908600846006840F454
:1019C000405008600120094908600949C1F8A80190
:1019D000FFF740FF002005490860FFF73BFF0020AC
:1019E0000349C1F8A80110BD040C0140AC8121429B
:1019F0000080214210B50E48006820F470400C4968
:101A000008600846006840F440500860002009491A
:101A100008600949C1F8AC01FFF71CFF0120054926
:101A200008600549C1F8AC01FFF714FF10BD0000C4
:101A3000040C0140A88121420080214210B50024FD
:101A40001448006820F47040124908600846006895
:101A500040F40040086001200F490860FFF7FAFEDB
:101A600001200E49C1F8A801FFF7F4FE07E0601C51
:101A7000C4B2FA2C03DDFFF7BDFF012010BD0648FC
:101A8000803800680028F2D10349091F086000BFB0
:101A9000F4E70000040C0140AC81214200802142A7
:101AA00010B5FFF7DDFE80216B2000F0D7F8642031
:101AB00003F070FA00216B2000F0D0F8032000F052
:101AC0008BF8002000F080F8322000F0AAF8002106
:101AD000382000F0C3F800216A2000F0BFF8002190
:101AE000232000F0BBF88021372000F0B7F87520E4
:101AF00000F013F80446682C0BD101216B2000F094
:101B0000ADF800216C2000F0A9F8322000F089F82F
:101B100001E0012010BD0020FCE770B50446FFF78E
:101B200045FFD020FFF714FFFFF788FF2046FFF79F
:101B30000FFFFFF783FFFFF739FFD120FFF708FF03
:101B4000FFF77CFF0020FFF7CDFE0546FFF752FFB1
:101B5000284670BD2DE9F04106460F4614461D4645
:101B6000FFF724FF002141EA4601C8B2FFF7F0FE6B
:101B7000FFF764FF20B1FFF73DFF0120BDE8F081D2
:101B80003846FFF7E5FEFFF759FFFFF70FFF01218A
:101B900001EB4601C8B2FFF7DBFEFFF74FFF0DE098
:101BA000012C04D10020FFF79DFE287003E00120E6
:101BB000FFF798FE2870601EC4B26D1C002CEFD198
:101BC000FFF718FF0020D9E710B50446E006010E24
:101BD0001C2000F043F810BD10B50446E006010ECD
:101BE0001B2000F03BF810BD70B504460025BC2C4E
:101BF00001DB012510E0622C01DB02250CE02A2C20
:101C000001DB032508E0142C01DB042504E00A2C89
:101C100001DB052500E0062529461A2000F01EF804
:101C200070BD70B50446B4F57A7F01DD4FF47A7467
:101C3000042C00DA04244FF47A7090FBF4F0401E78
:101C4000C5B22946192000F009F80546264604EBDE
:101C5000D671C1F34F00FFF7C7FF70BD70B50546E1
:101C60000C46FFF7A3FED020FFF772FEFFF7E6FE5B
:101C700018B1FFF7BFFE012070BD2846FFF768FED0
:101C8000FFF7DCFE2046FFF763FEFFF7D7FE18B133
:101C9000FFF7B0FE0120EFE7FFF7ACFE0020EBE717
:101CA0002DE9F04105460E4617469846FFF77EFEA1
:101CB000002141EA4501C8B2FFF74AFEFFF7BEFE28
:101CC00020B1FFF797FE0120BDE8F0813046FFF715
:101CD0003FFEFFF7B3FE00240CE018F80400FFF706
:101CE00037FEFFF7ABFE18B1FFF784FE0120EBE7EC
:101CF000601CC4B2BC42F0DBFFF77CFE0020E3E7CF
:101D00002DE9F0410746884614461D46284600F056
:101D100033F8C5F1040007FA00F60F20284100EA65
:101D20000800064306F00F06E21704EBD2625211D8
:101D3000920002F1E022D2F800212146E31704EBE1
:101D4000D3635B11A4EB431C012303FA0CF31A4386
:101D50002046E31704EBD3635B119B0003F1E02300
:101D6000C3F800210348005D40EA06100149085508
:101D7000BDE8F08100E400E00146072323EA010208
:101D80001202054B18684FF6FF031840034B184327
:101D90001043014B186070470CED00E00000FA059D
:101DA00000BFFEE710B54FF496706149086013E07C
:101DB0006048C07801280CD15E48007848B95C487A
:101DC0000068FA2805DA00205B4908605849086075
:101DD00002E0012058490860554800680028E7DC07
:101DE00032205349086002E00020534908605048FF
:101DF00000680028F8DCC8204D49086012E04F4810
:101E00000068052805D100204B4908604849086052
:101E100008E0FFF797F84FF4FA631A461946184698
:101E2000FFF7E6FC424800680028E8DC4FF4FA704F
:101E30003F49086015E03F484078012808D13D48F7
:101E4000807828B900203C4908603949086008E0DA
:101E5000FFF7B0F840F6C4131A4619461846FFF7C4
:101E6000C7FC334800680028E5DC6420304908607E
:101E700012E033480068062805D100202E4908608A
:101E80002B49086008E0FFF75DF84FF4FA631A4643
:101E900019461846FFF7ACFC254800680028E8DC26
:101EA00032202349086002E00020234908602048CE
:101EB00000680028F8DCC8201D49086008E0FFF72A
:101EC00041F840F6B8331A4619461846FFF790FC19
:101ED000174800680028F2DC4FF4C8701449086005
:101EE00021E01448007818B91248C078012803D0BE
:101EF0000F480068C82805DA00200F4908600C491F
:101F0000086010E00E480068062809D1FFF71AF8AB
:101F100040F6B8331A4619461846FFF769FC02E046
:101F2000012005490860024800680028D9DC10BD7E
:101F30004C0000201C010020480000201801002057
:101F40001401002010B51E20A34908600BE00020FA
:101F5000A2490860A24AA349A34804F003FCA04890
:101F60000068A24908609C4800680028EFDC4FF434
:101F7000FA709949086011E09D48407801280AD11B
:101F800095480068B0F5C87F05DA002093490860DD
:101F90009149086006E00420904908608E48006876
:101FA0000028E9DC00BF14208B49086002E0002013
:101FB0008A490860884800680028F8DC4FF4FA7005
:101FC0008549086010E08B480068052805D100208D
:101FD000824908608049086006E04FF496608649AF
:101FE000086002207D4908607B4800680028EADC20
:101FF00064207949086002E000207849086076484A
:1020000000680028F8DC06F081FC4FF4966002F0CE
:10201000C1FFFEF775FF4FF49670FEF7DBFFFEF78A
:102020006FFF14206C49086002E000206B490860D3
:10203000694800680028F8DCC8206749086012E099
:102040006E48C078012805D10020644908606249C3
:10205000086008E0FEF784FF4FF47A731A461946C9
:102060001846FFF7C5FB5C4800680028E8DCC8207C
:102070005949086011E06148C07828B900205749E3
:1020800008605549086008E0FEF76AFF4FF47A736C
:102090001A4619461846FFF7ABFB4F480068002860
:1020A000E9DC32204C49086002E000204B4908601E
:1020B000494800680028F8DC4B204749086008E0E0
:1020C000FEF732FF4FF47A731A4619461846FFF7A7
:1020D0008FFB414800680028F2DC32203E4908604E
:1020E00002E000203D4908603B4800680028F8DC19
:1020F00004F0DEF840F2DC50FEF76CFF04F008F963
:1021000040F2DC50FEF766FF04F032F940F2DC509A
:10211000FEF760FF04F05CF940F2DC50FEF75AFF76
:1021200004F086F940F2DC50FEF754FF04F0B0F9F9
:1021300040F2DC50FEF74EFF04F0DAF940F2DC50DA
:10214000FEF748FF04F004FA40F2DC50FEF742FFCD
:1021500004F02EFA40F2DC50FEF73CFF07241CE0AE
:102160003C201D49086008E0FEF7ECFE4FF47A734E
:102170001A4619461846FFF73BFB17480068002827
:10218000F2DC32201449086002E0002013490860A4
:10219000114800680028F8DC641E002CE0DC4FF4D5
:1021A000FA700D49086012E015480068052805D14D
:1021B00000200A4908600849086008E0FEF7C2FEEE
:1021C0004FF4FA631A4619461846FFF711FB024806
:1021D00000680028E8DC10BD4C000020480000200A
:1021E000C4000020C0000020BC00002050000020DF
:1021F00020010020180100206C0000201C0100209C
:102200001401002010B532201A49086002E00020B5
:1022100019490860174800680028F8DC4FF4FA7084
:102220001449086017E01548407801280AD1114880
:102230000068B0F5C87F05DA00200F4908600D4935
:1022400008600CE0FEF79AFE4FF4FA631A4619464E
:102250001846FFF7CDFA074800680028E3DC00BF06
:1022600040F2DC500649086006490860FEF798FC19
:1022700010BD00004C00002048000020200100207C
:10228000680000206C00002010B54FF4FA705F4920
:1022900008600CE05E480078012805D100205D4907
:1022A00008605A49086002E001205A49086057480E
:1022B00000680028EEDC32205449086002E000206B
:1022C00054490860514800680028F8DC28204F492C
:1022D000086008E0FEF736FE4FF4FA631A46194626
:1022E0001846FFF785FA494800680028F2DC4FF4E9
:1022F000FA704649086015E04548407848B94448B6
:102300008078012805D10020424908603F490860D3
:1023100008E0FEF741FE40F6C4131A461946184677
:10232000FFF766FA394800680028E5DCC82037491D
:10233000086010E038480068062805D100203549BB
:1023400008603249086006E040F2DC50334908601A
:102350000120304908602D4800680028EADC82200E
:102360002A49086008E0FEF7EDFD40F6B8331A464A
:1023700019461846FFF73CFA244800680028F2DCAA
:102380004FF4FA702149086010E0234800680528DE
:1023900005D100201F4908601C49086006E04FF481
:1023A000FA601E49086001201A4908601748006851
:1023B0000028EADC1E201549086002E000201549CB
:1023C0000860124800680028F8DC4FF496700F4946
:1023D000086016E012480068062809D10B4800681A
:1023E000FA2805DA00200B4908600849086008E06F
:1023F000FEF7A8FD4FF47A731A4619461846FFF700
:10240000F7F9024800680028E4DC10BD4C00002009
:102410001C0100204800002014010020680000205A
:10242000180100207047000070B5002100230F2222
:10243000C47804B3154C246804F4E064C4F5E06483
:10244000210AC1F10403CA40447804FA03F18478F4
:102450001440214309010E4C0678A155047804F07C
:102460001F050124AC4005786D11AD0005F1E02594
:10247000C5F8004109E0047804F01F050124AC40D0
:10248000044D0678761145F8264070BD0CED00E04D
:1024900000E400E080E100E002490143024A1160EB
:1024A000704700000000FA050CED00E070470000E6
:1024B00029B1064AD2690243044BDA6104E0034AB7
:1024C000D2698243014BDA6170470000001002407C
:1024D00029B1064A92690243044B9A6104E0034A17
:1024E00092698243014B9A617047000000100240DC
:1024F00030B500210022002400232D4D6D6805F029
:102500000C0121B1042905D0082923D105E0294D6A
:10251000056022E0274D05601FE0254D6D6805F43C
:102520007012234D6D6805F48034022505EB92424C
:102530001CB9214D554305600BE01D4D6D6805F438
:1025400000351DB11C4D5543056002E0194D554342
:10255000056002E0174D056000BF00BF144D6D68B7
:1025600005F0F0010909154D6B5C0568DD4045601B
:102570000F4D6D6805F4E061090A104D6B5C45680C
:10258000DD4085600A4D6D6805F46051C90A0B4D48
:102590006B5C4568DD40C560054D6D6805F44041E4
:1025A000890B074D6B5CC568B5FBF3F5056130BD64
:1025B0000010024000127A0000093D0014000020C3
:1025C0002400002001461348405C134A525C9042AC
:1025D00005D11248405C401C104A505406E00020CF
:1025E0000E4A50540B48405C0B4A50540B48405C18
:1025F00001280BDD00200A4A5054084A505406486E
:10260000405C084A50540448405C70470548405CB0
:10261000FBE700003A0100203E01002046010020B7
:102620004A0100204201002001461348405C134A41
:10263000525C904205D11248405C401C104A5054F4
:1026400006E000200E4A50540B48405C0B4A5054A0
:102650000B48405C01280BDD00200A4A5054084A10
:1026600050540648405C084A50540448405C704747
:102670000548405CFBE70000260100202A010020FD
:1026800032010020360100202E01002001460A48B8
:10269000405C0A4A525C904207D00120084A5054DC
:1026A0000548405C074A505403E00348405C034A35
:1026B00050540248405C70473A010020420100201B
:1026C0004A0100203E01002001460A48405C0A4AB7
:1026D000525C904207D00120084A50540548405CA3
:1026E000074A505403E00348405C034A50540248F0
:1026F000405C7047260100202E010020360100209A
:102700002A01002000B503460A48C05C10B1012828
:102710000CD105E01846FFF7B9FF0749087005E03E
:102720001846FFF74FFF0449087000BF00BF02487A
:10273000007800BD4A0100205101002000B5034689
:102740000A48C05C10B101280CD105E01846FFF71B
:10275000BBFF0749087005E01846FFF765FF04490D
:10276000087000BF00BF0248007800BD360100209D
:102770005001002000B589B00121C802FFF7A8FE72
:1027800001210420FFF7A4FE48208DF823004FF418
:102790008070ADF8200003208DF8220008A9294898
:1027A000FEF788FC284800F0B8FD0020ADF81A00BC
:1027B000ADF816004FF6FF70ADF818004720ADF8E1
:1027C000140000208DF81C0005A91F4800F046FFEA
:1027D0000020ADF808000F20ADF810000220ADF881
:1027E0000A000020ADF80E000120ADF80C0002A98F
:1027F000154800F033FD5021134800F0F0FE04218D
:10280000114800F0F5FE1B208DF804004FF4A06085
:10281000FFF742FE01208DF8050003208DF8060029
:1028200001208DF8070001A8FFF7FEFD012202211B
:10283000054800F069FD0121034800F0E0FC09B003
:1028400000BD000000080140002C014010B54FF40D
:10285000165006F0AFF800200549087001200871F5
:10286000022008720C2008730D20087410BD0000AF
:102870002E020020704710B500F002F810BD0000D5
:102880000CB50020019000903348006840F480307F
:102890003149086000BF3048006800F40030009003
:1028A0000198401C0190009818B90198B0F5A06FEC
:1028B000F1D12948006800F4003010B101200090E7
:1028C00001E0002000900098012843D123480068CF
:1028D00040F01000214908600846006820F003001D
:1028E00008600846006840F0020008601A48406826
:1028F000194948600846406848600846406840F406
:10290000806048600846406820F47C1048600846B3
:10291000406840F4E81048600846006840F0807065
:10292000086000BF0C48006800F000700028F9D073
:102930000948406820F0030007494860084640689D
:1029400040F00200486000BF0348406800F00C00FF
:102950000828F9D10CBD0000001002400020024000
:10296000042808D14FF0E021096941F004014FF03B
:10297000E022116107E04FF0E021096921F0040134
:102980004FF0E022116170477047000010B5134806
:10299000006840F00100114908600846406810498D
:1029A00008400E494860084600680E4908400B4937
:1029B00008600846006820F48020086008464068E7
:1029C00020F4FE0048604FF41F008860FFF753FFBB
:1029D0004FF000600449086010BD00000010024084
:1029E0000000FFF8FFFFF6FE08ED00E0F0B50C4632
:1029F000154600220021068C4FF6FE773E400684E5
:102A0000028B018C4FF60C7632407E1C06EA0316D0
:102A10002E433243104EB0420ED0104EB0420BD077
:102A2000B0F1804F08D00E4EB04205D00D4EB042EE
:102A300002D00D4EB04206D14FF6FD76314044F043
:102A40000106314305E04FF6F576314044F00106CA
:102A5000314302830184F0BD002C01400034014069
:102A60000004004000080040000C0040F0B50C4697
:102A70001546002200210026078C4FF6EF7C07EA5E
:102A80000C070784028B018C4FF6FF7707EA0416C8
:102A900040F6FF473A404FF6FF7707EA03373A43DD
:102AA0004FF6FF7707EA05273A43114FB8420ED099
:102AB000104FB8420BD0B0F1804F08D00E4FB84243
:102AC00005D00E4FB84202D00D4FB84206D14FF696
:102AD000DF77394046F01007394305E04FF65F775E
:102AE000394044F01007394302830184F0BD0000EF
:102AF000002C014000340140000400400008004068
:102B0000000C0040F0B50C461546002200210026BE
:102B1000078C4FF6FF6C07EA0C070784828B018C49
:102B20004FF6FF7707EA04264FF60C773A404FF648
:102B3000FF7707EA03172F433A43114FB8420ED0ED
:102B4000104FB8420BD0B0F1804F08D00E4FB842B2
:102B500005D00E4FB84202D00D4FB84206D14FF605
:102B6000FF57394046F48077394305E04FF2FF576D
:102B7000394044F48077394382830184F0BD0000FA
:102B8000002C0140003401400004004000080040D7
:102B9000000C0040F0B50C4615460022002100262E
:102BA000078C4EF6FF7C07EA0C070784828B018CAA
:102BB0004FF6FF7707EA043640F6FF473A404FF6F4
:102BC000FF7707EA05273A434FF6FF7707EA03370F
:102BD0003A43114FB8420ED0104FB8420BD0B0F16B
:102BE000804F08D00E4FB84205D00E4FB84202D0E9
:102BF0000D4FB84206D14DF6FF77394046F4805765
:102C0000394305E047F6FF57394044F480573943CC
:102C100082830184F0BD0000002C0140003401409B
:102C20000004004000080040000C004010B50221E4
:102C30005F4800F002FB012816D15E4800780128A9
:102C400029D1FEF719FB5C4908800846008843F249
:102C5000C821884209DD5848008843F2B0618842A3
:102C600003DA0220534908709DE05348008842F679
:102C7000FE1188420BDD5048008842F6E65188423A
:102C800005DA01204D4908704A4908708BE001209F
:102C90004849087087E0474800780228E4D1FEF7E9
:102CA000EBFA4549088008460088B0F51B7F26DD11
:102CB0000846008840F25461884220DA404A107881
:102CC000C21700EB5272D2103E4B9A5C3C4B197803
:102CD000CB1701EB5373DB10A1EBC3040123A3401B
:102CE0009A43374B1878C31700EB5373DB10354CFE
:102CF000E25433480078401C3149087032E02E48D5
:102D0000008840F2CC61884226DD2B48008840F6DE
:102D1000B421884220DA2A4A1078C21700EB527296
:102D2000D210284B9A5C264B1978CB1701EB5373C2
:102D3000DB10A1EBC3040123A3401A43204B1878F6
:102D4000C31700EB5373DB101E4CE2541C48007891
:102D5000401C1B49087005E000201949087001203B
:102D6000144908701648007820281CDB00201449FC
:102D700008701448007813494978084080B9114810
:102D800080781049C978084050B90E4800780E493B
:102D900008700C4880780D49087001200C490870B3
:102DA0000120044908700221014800F025FA10BDF5
:102DB000002C01400A010020080100201101002020
:102DC0000F0100200B010020120100201301002040
:102DD0001001002010B505F02FFC05F091FB05F067
:102DE000C7FC9348006868B900231A46194618467C
:102DF000FEF7FEFCFEF7A6F88E480068401E8D49DF
:102E000008600DE18A480068012807D100F030FD14
:102E100088480068401E8749086001E184480068CE
:102E2000022807D100F06CFC82480068401E8149EE
:102E30000860F5E07E480068032805D17D480068F9
:102E40000A387C490860EBE079480068042807D11B
:102E500004F07AFD77480068401E76490860DFE09C
:102E600073480068052807D104F0C6FD7148006862
:102E7000401E70490860D3E06D4800680628C0D045
:102E80006B48006807282FD16B48007860B36B4807
:102E90000078612804D062280BD063281CD112E08E
:102EA0000420674908600220664908606649086096
:102EB00012E0022062490860042062490860022092
:102EC0006149086008E002205D4908605D490860CA
:102ED00004205D49086000BF00BF01205B49087005
:102EE0000020554908709BE051480068082878D1B7
:102EF00051480078002874D055480078612804D0E3
:102F0000622813D0632833D121E04D48006800289F
:102F100008DD4B480068401E4949086001204D49C2
:102F2000087002E000204B49087021E04548006825
:102F3000002808DD43480068401E4249086001201F
:102F40004449087002E000204249087010E03E4801
:102F50000068002808DD3C480068401E3A490860C7
:102F600001203C49087002E000203A49087000BF87
:102F700000BF39480078612804D0622813D0632844
:102F800034D121E02E480068002808DD2C48006874
:102F9000401E2B49086001202E49087002E00020E5
:102FA0002C49087022E027480068002808DD2548E1
:102FB0000068401E2349086001202649087002E08D
:102FC00000202449087011E01E480068002809DD2F
:102FD0001C480068401E1B49086001201D490870FC
:102FE00003E00BE000201B49087000BF00BF012078
:102FF0001A49087000201049087011E00C48006858
:1030000009280DD1FDF7D6FF4FF47A731A461946F9
:103010001846FEF7EDFB07480068401E05490860AA
:103020000F48008A20F001000D49088210BD000001
:10303000480000204C0000202D000020310000201E
:10304000580000205C0000206000002032000020BA
:103050003B000020640000203C0000203D000020D8
:103060000010004070B505460C460D48C06940F0A0
:1030700010000B49C8610B4885850485808940F0A4
:103080000100084988810846008840F00100088056
:103090000223362203210120FEF732FE70BD00001C
:1030A000001002400010004030B589B005460C46C3
:1030B00001214803FFF70CFA01211020FFF708FA5D
:1030C0004FF47070ADF8200018208DF82300032015
:1030D0008DF8220008A94048FDF7ECFF681E80B279
:1030E000ADF81800601E80B2ADF814000020ADF8F5
:1030F0001A00ADF816008DF81C0005A9374800F03D
:10310000ADFA6020ADF804000120ADF80600002003
:10311000ADF810003220ADF80A000020ADF80C0028
:1031200001A92E4800F000F908212C4800F048F9C8
:103130006020ADF804000120ADF806000020ADF8D5
:1031400010003220ADF80A000020ADF80C0001A9F3
:10315000224800F03FF90821204800F08DF9602056
:10316000ADF804000120ADF806000020ADF8100015
:103170003220ADF80A000020ADF80C0001A9174874
:1031800000F088F90821154800F0D4F96020ADF866
:1031900004000120ADF806000020ADF81000322038
:1031A000ADF80A000020ADF80C0001A90B4800F0B2
:1031B000CBF90821094800F005FA0121074800F081
:1031C0000FF80121054800F01AF80121034800F02A
:1031D00022F809B030BD0000001001400034014069
:1031E00021B1028842F08002028004E002884FF69A
:1031F0007F731A4002807047CA430282704721B130
:10320000028842F00102028004E002884FF6FE7359
:103210001A400280704731B1B0F8442042F40042B5
:10322000A0F8442005E0B0F84420C2F30E02A0F854
:10323000442070470146888E704730B50246002012
:1032400000230024158A05EA0103958905EA010493
:1032500013B10CB1012000E0002030BD70B505466F
:103260000C46244885420ED0234885420BD0B5F148
:10327000804F08D02148854205D02148854202D0A0
:103280002048854200D100E000BF208850B9238942
:10329000A28861882846FFF7A9FBE188284600F04C
:1032A000B0F925E0208804280AD12389A288618802
:1032B0002846FFF7DBFBE188284600F0ABF917E072
:1032C000208808280AD12389A28861882846FFF728
:1032D00019FCE188284600F0AAF909E02389A288B0
:1032E00061882846FFF756FCE188284600F0A8F9D7
:1032F00070BD0000002C014000340140000400407B
:1033000000080040000C00401AB183890B43838100
:1033100002E083898B438381704701894FF6F872FD
:10332000114001817047000070B500240022002385
:10333000058C4FF6FE7635400584028C8388048B1D
:103340004FF68F752C40B51E2C400D882C43751EF2
:103350002A400D892A434D882A43144DA8420BD098
:10336000134DA84208D0134DA84205D0124DA842D3
:1033700002D0124DA84213D14FF6F7752A404D895D
:103380002A434FF6FB752A408D882A434FF6FF6586
:103390002B404FF6FF552B408D892B43CD892B4376
:1033A00083800483CD888586028470BD002C014013
:1033B0000034014000400140004401400048014009
:1033C0000A460021018B4FF6F77319401143018320
:1033D0007047000070B5002400220023058C4FF6D2
:1033E000EF7635400584028C8388048B48F6FF75A0
:1033F0002C404FF6FF452C400D884FF6FF7606EA2D
:1034000005252C434FF6DF752A400D8906EA051580
:103410002A434D8806EA05152A43154DA84202D0D5
:10342000144DA8421DD14FF67F752A404D894FF6A5
:10343000FF7606EA05152A434FF6BF752A408D88A8
:1034400006EA05152A434FF6FF352B404FF2FF756C
:103450002B408D8906EA85052B43CD8906EA850533
:103460002B4383800483CD880587028470BD0000D0
:10347000002C0140003401400A460021018B4FF22C
:10348000FF7319404FF6FF7303EA022319430183C8
:103490007047000070B5002400220023058C4FF611
:1034A000FF6635400584028C8388848B4FF68F75C8
:1034B0002C404FF6FC752C400D882C434FF6FF55E1
:1034C0002A400D894FF6FF7606EA05252A434D88E6
:1034D00006EA05252A43154DA84202D0144DA842FC
:1034E0001DD14FF2FF752A404D894FF6FF7606EA4F
:1034F00005252A434FF6FF352A408D8806EA052523
:103500002A434EF6FF752B404DF6FF752B408D89F3
:1035100006EA05152B43CD8906EA05152B43838062
:103520008483CD888587028470BD0000002C014013
:10353000003401400A460021818B4FF6F773194091
:10354000114381837047000070B5002200230024DE
:10355000058C4EF6FF7635400584038C8488828B7B
:1035600048F6FF752A404FF6FF452A400D884FF672
:10357000FF7606EA05252A434DF6FF752B400D8997
:1035800006EA05352B434D8806EA05352B430B4DDE
:10359000A84202D00A4DA84208D14BF6FF752C4034
:1035A0008D894FF6FF7606EA85152C438480828349
:1035B000CD88A0F84050038470BD0000002C01406D
:1035C000003401400A460021818B4FF2FF731940FD
:1035D0004FF6FF7303EA02231943818370470A46BB
:1035E000002101894FF68F73194011430181704703
:1035F00002894FF6F8731A40028102890A43028158
:103600007047028B4FF6F3731A400283028B0A4312
:1036100002837047028B4FF2FF331A400283028B02
:103620004FF6FF7303EA01231A4302837047828B2C
:103630004FF6F3731A408283828B0A43828370476A
:10364000828B4FF2FF331A408283828B4FF6FF73D7
:1036500003EA01231A438283704700000022028894
:103660001D4B98420ED01D4B98420BD0B0F1804FAD
:1036700008D01B4B984205D01A4B984202D01A4BE7
:10368000984204D14FF68F731A404B881A43174B58
:10369000984207D0164B984204D04FF6FF431A4089
:1036A000CB881A4302808B8883850B8803850A4B5D
:1036B00098420BD0094B984208D00E4B984205D047
:1036C0000D4B984202D00D4B984201D10B7A0386E4
:1036D0000123838270470000002C01400034014028
:1036E0000004004000080040000C004000100040B2
:1036F00000140040004001400044014000480140E7
:1037000010B559480068001D09287CD2DFE800F098
:103710004533230F05576B7C8E00FDF705FC53489E
:103720000368026801680068FEF762F89AE0FDF736
:10373000FBFB4E480068A0F596734C480068A0F566
:1037400096714A48026802F59672006800F5967014
:10375000FEF74EF886E0FDF71FFC44480068A0F530
:103760007A7342480068A0F57A71404802680068A0
:10377000FEF73EF876E0FDF70FFC3C480068A0F548
:1037800096633A480068A0F5966138480268C832E6
:103790000068C830FEF72CF864E0FDF7FDFB334805
:1037A0000068A0F5966331480068A0F596612F483F
:1037B0000268C8320068C830FEF71AF852E0FDF718
:1037C000B3FB2A490968A1F5967228490968A1F551
:1037D000967026490B6803F59673096801F5967192
:1037E000FEF706F83EE0FDF7E5FB20490968A1F584
:1037F0007A721E490968A1F57A701C490B6809683C
:10380000FDF7F6FF2EE023E0FDF7D4FB174909682A
:10381000A1F5966215490968A1F5966013490B68F0
:10382000C8330968C831FDF7E3FF1BE0FDF7C2FBB1
:103830000E490968A1F596620C490968A1F59660E0
:103840000A490B68C8330968C831FDF7D1FF09E0A0
:10385000FDF76AFB05480368026801680068FDF728
:10386000C7FF00BF00BF10BD180100206C00002082
:1038700010B559480068001D09287CD2DFE800F027
:103880004533230F05576B7C8E00FDF75BFB5348D8
:103890000368026801680068FDF7AAFF9AE0FDF777
:1038A00051FB4E490968A1F596724C490968A1F58A
:1038B00096704A490B6803F59673096801F596718D
:1038C000FDF796FF86E0FDF767FB44490968A1F51F
:1038D0007A7242490968A1F57A7040490B68096813
:1038E000FDF786FF76E0FDF757FB3C490968A1F537
:1038F00096623A490968A1F5966038490B68C83361
:103900000968C831FDF774FF64E0FDF745FB3349F2
:103910000968A1F5966231490968A1F596602F49B9
:103920000B68C8330968C831FDF762FF52E0FDF744
:1039300009FB2A480068A0F5967328480068A0F59E
:1039400096712648026802F59672006800F5967036
:10395000FDF74EFF3EE0FDF72DFB20480068A0F587
:103960007A731E480068A0F57A711C4802680068E6
:10397000FDF73EFF2EE023E0FDF71CFB1748006833
:10398000A0F5966315480068A0F596611348026893
:10399000C8320068C830FDF72BFF1BE0FDF70AFBBB
:1039A0000E480068A0F596630C480068A0F5966183
:1039B0000A480268C8320068C830FDF719FF09E0FC
:1039C000FDF7C0FA05480368026801680068FDF762
:1039D0000FFF00BF00BF10BD1401002068000020D1
:1039E0002DE9F04F87B040F22551FE4800F077FBFB
:1039F00000287DD0FC4800780028FAD040F22551FC
:103A0000F84800F051FBF74800F024FC00F0FF09F3
:103A1000F648007878B9B9F1410F0CD10120F3498B
:103A20000870F34801780078401CF14A1070F148A2
:103A300000F8019048E2ED48007801280FD1B9F173
:103A40004F0F0CD10220E9490870E948017800784D
:103A5000401CE74A1070E74800F8019034E2E34860
:103A60000078022864D1E24801780078401CE04ADE
:103A70001070E04800F80190B9F12C0FDAD1032062
:103A8000DA49087010460078401EDB4908700020B3
:103A9000DA490870022430E0D7490978091B481E2A
:103AA000FCF722FE07463A460B460020D44904F0B4
:103AB0003BF805460E46CF49085DFDF7E3F907469A
:103AC000FCF723FE2A463346CDE90001FCF71DFD35
:103AD000CDE90401C9480078FCF717FECDE90201E1
:103AE000DDE90423FCF76AFC8246FCF748FE00E0AF
:103AF000FCE1C2490870601CC4B2BF48007884422F
:103B0000CADBBE4800781E2803DBBC480078782852
:103B100090DD0020B6490870B4490870002404E024
:103B20000020B4490855601CC4B20A2CF8DBCBE174
:103B3000AE48007803284FD1AD4801780078401C8A
:103B4000AB4A1070AB4800F80190B9F12C0F85D149
:103B50000420A649087010460078401EA949087044
:103B60000020A9490870A4480078401CC4B22EE087
:103B7000A4490978091B481EFCF7B6FD07463A46DA
:103B80000B4600209E4903F0CFFFCDE90001994983
:103B9000085DFDF777F90746FCF7B7FD8246DDE9DA
:103BA0000023FCF7B2FC05460E4697480078FCF768
:103BB000ACFD2A463346CDE90201FCF7FFFBCDE917
:103BC0000401FCF7DCFD90490870601CC4B28D480C
:103BD00000788442CCDB77E184480078042865D102
:103BE0008A480078002861D0814801780078401C1C
:103BF0007F4A10707F4800F80190014681480078A4
:103C0000401C085C612804D0622808D0632812D1C7
:103C10000BE07F480078401C7D4908700BE07C4831
:103C20004078401C7A49487005E079488078401C0B
:103C30007749887000BF00BF754800780A2807D010
:103C4000734840780A2803D0714880780A281ED12A
:103C50000020654908706D49087001206D490870A1
:103C60006B4800780A2803D161206B4908700EE088
:103C7000674840780A2803D162206749087006E047
:103C8000634880780A2802D16320634908700020C5
:103C90005649087056490870002404E00020554930
:103CA0000855601CC4B2042CF8DB0DE14F480078C5
:103CB000042875D159480078002871D04C48017803
:103CC0000078401C4A4A10704A4800F801904E485B
:103CD000007800284DDD4C480078322849DA5048F9
:103CE0000078A8BB434947480078401C085C61281D
:103CF00004D0622808D0632812D10BE0494800782C
:103D0000401C484908700BE046484078401C454933
:103D1000487005E043488078401C4249887000BFE5
:103D200000BF404800780A2807D03E4840780A285B
:103D300003D03C4880780A2809D10120384908700E
:103D4000384800780A2804D16120374908708CE08F
:103D50000FE0344840780A2803D1622032490870C5
:103D600083E0304880780A287FD163202E4908708C
:103D70007BE025480078322877DD234800789628B4
:103D800073DA2A48007858BB1A491E480078401C4C
:103D9000085C612805D0622809D0632813D10CE0A3
:103DA00084E023480078401C214908700BE020483B
:103DB0004078401C1E49487005E01D488078401C32
:103DC0001B49887000BF00BF194800780A2832D00C
:103DD000174840780A282ED0154880780A2829E00C
:103DE00033E00000003801402A0000203F0000209E
:103DF0003E0000202402002042000020400000205D
:103E00000000244043000020410000202B0000203F
:103E10002E0000202D000020310000202C0000206A
:103E200039000020330000203B0000203A00002031
:103E30003600002019D101202E4908702E48007844
:103E40000A2803D161202D4908700EE02A484078E5
:103E50000A2803D162202949087006E026488078A4
:103E60000A2802D16320254908702248007870B1E1
:103E70002348007858B101202249087000202249C7
:103E80000870224908701B4908701D4908700020FD
:103E90001F4908701F490870002404E000201E49D3
:103EA0000855601CC4B2042CF8DB0DE00020184952
:103EB000087018490870002404E0002016490855CD
:103EC000601CC4B20A2CF8DB124800780A280DDD09
:103ED00000200F4908700F490870002404E00020FA
:103EE0000D490855601CC4B20A2CF8DB07B0BDE8C8
:103EF000F08F00003A000020360000203C00002037
:103F0000390000202D0000202C0000202A00002075
:103F10003F0000203E0000202402002000B587B0B2
:103F2000012144F20500FEF7D3FA4FF40070ADF81A
:103F3000180003208DF81A0018208DF81B0006A920
:103F40001D48FDF7B7F84FF48060ADF81800042065
:103F50008DF81B0006A91848FDF7ACF825208DF850
:103F6000040003208DF805008DF8060001208DF86F
:103F7000070001A8FEF758FA4FF4E1300290002044
:103F8000ADF80C00ADF80E00ADF81000ADF814005F
:103F90000C20ADF8120002A9084800F0EFF8012249
:103FA00040F22551054800F0C4F80121034800F013
:103FB0008AF807B000BD0000000801400038014049
:103FC00010B540F22551304800F089F800285AD049
:103FD0002D4800F03FF9C4B22C480078C8B9552CE0
:103FE00010D12B480078401C2949087008460078F9
:103FF00002280ED1002008700120244908702549AC
:10400000087006E000202149087022490870204904
:1040100008701E480078B0B31F481E490978445400
:104020001C480078022813D11B481A490978405CC3
:104030001A49087008460078022803DB0846007811
:10404000082805DD02201549087000200F49087076
:1040500010480078401C0F490870084601780F4846
:104060000078801C81420ED10D48007840B90120B3
:104070000B4908700748027807490A48FCF7A5F879
:1040800000200249087010BD00440040A600002036
:10409000A7000020A9000020E4020020A8000020C2
:1040A000A5000020D402002010B50022002340F615
:1040B0006A14A14200D100BF0A1201249440A3B2A5
:1040C000DC43048010BD21B1828942F40052828118
:1040D00004E082894DF6FF731A408281704770B503
:1040E0000246002400230025002040F66A16B14253
:1040F00000D100BFC1F3421501F01F03012606FAEB
:1041000003F3012D02D19689334006E0022D02D13E
:10411000168A334001E0968A33400C12012606FAD3
:1041200004F41688344013B10CB1012000E00020E3
:1041300070BDF0B50346002400260025002040F69F
:104140006A17B94200D100BF1846C1F3421401F00A
:104150001F06012707FA06F5012C01D10C3004E0F7
:10416000022C01D1103000E014301AB107682F433F
:10417000076002E00768AF430760F0BD2DE9F04734
:1041800086B005460E460024A24600BFA146002781
:10419000B08900B100BF2F462C8A4CF6FF70044056
:1041A000F08804432C82AC894EF6F3100440B088AA
:1041B00031890843718908430443AC81AC8A4FF6C6
:1041C000FF400440B0890443AC8201A8FEF790F997
:1041D0001F48874202D1DDF810A001E0DDF80CA0F5
:1041E000A88900F4004040B10AEBCA0000EB0A10B5
:1041F00031684900B0FBF1F807E00AEBCA0000EBB8
:104200000A1031688900B0FBF1F86420B8FBF0F0C7
:1042100004012009642101FB1089A88900F40040F1
:1042200040B1322000EBC900B0FBF1F000F0070014
:10423000044308E0322000EB09106421B0FBF1F0E8
:1042400000F00F0004432C8106B0BDE8F0870000A9
:104250000038014001468888C0F308007047C1F368
:1042600008028280704700BFFEE700000FB4054BD4
:1042700010B503A9044A029800F0AAF810BC5DF832
:1042800014FB0000E15B000854010020490050EAE3
:10429000C12018BF04204A0D18BF40F0010040F2B1
:1042A000FF72B2EB515F08BF40F00200012808BF67
:1042B000052070472DE9F0414F1E00EBC701044671
:1042C000D1E9000115461E4637F006020DD02A46F8
:1042D0003346FCF71AF97F1E04EBC703D3E900232A
:1042E000FCF76CF837F00602F1D1022F25D0042F2D
:1042F00013D0062F18BFBDE8F0812A463346FCF7DD
:1043000004F9D4E90A23FCF759F82A463346FCF7A6
:10431000FCF8D4E90823FCF751F82A463346FCF7A9
:10432000F4F8D4E90623FCF749F82A463346FCF7AB
:10433000ECF8D4E90423FCF741F82A463346FCF7AD
:10434000E4F8D4E90223FCF739F82A463346FCF7AF
:10435000DCF8D4E90023BDE8F041FCF72FB80000F9
:104360000022134610460149FCF741B90000F03F16
:104370000122FCF757BBFCF721B800221346104678
:104380001146FCF734B940F2013200204FF0E04111
:10439000FCF748BB024A00201107FCF743BB0000B2
:1043A00001FDFFFF02E008C8121F08C1002AFAD170
:1043B00070477047002001E001C1121F002AFBD1A5
:1043C0007047000001490860704700005801002054
:1043D0002DE9FF4F8DB00F460546002606E0252843
:1043E0000BD0DDE90F1290476D1C761C2878002851
:1043F000F5D111B03046BDE8F08F0024A246A146A9
:104400000122EC4900E0044315F8013F203B02FA89
:1044100003F00842F7D128782A2810D06FF02F0235
:104420002878A0F13001092914D80AEB8A0102EB9F
:10443000410144F0020400EB010A6D1CF0E701CFDA
:104440005FEA000A03D544F40054CAF1000A44F0BC
:1044500002046D1C28782E2817D115F8010F44F09E
:1044600004042A280ED06FF02F022878A0F1300122
:1044700009290AD809EB890102EB410100EB010986
:104480006D1CF2E757F8049B6D1C28786C280FD040
:1044900006DC4C2817D068280DD06A2814D104E017
:1044A000742810D07A280FD10DE044F400140AE0EB
:1044B00044F4801401E044F440146978814202D14C
:1044C00004F580146D1C6D1C2A786E2A1FD00CDC3C
:1044D000632A31D004DC002A8BD0582A11D1A3E002
:1044E000642A68D0692A0CD165E0732A2ED004DCD6
:1044F0006F2A73D0702A04D19BE0752A6FD0782A76
:104500006ED01046DDE90F129047761C50E1C4F3DF
:104510000250022806D0032809D0042801CF09D070
:10452000066045E101CFF117C0E9006140E101CF2C
:1045300006803DE106703BE117F8040B8DF80000A2
:1045400000208DF80100EB46012003E057F804BB82
:104550004FF0FF3061074FF0000102D40DE008F189
:104560000101884649450FDA8045F8DB1BF8081041
:104570000029F4D108E008F1010188468142FADB04
:104580001BF808100029F6D1DDE90F23AAEB08007B
:104590008146214600F036F9304400EB080604E07D
:1045A000DDE90F121BF8010B9047B8F10108F7D2B3
:1045B00021464846F7E00A21C4F302534FF0000BAE
:1045C0000891022B04D001CFC117032B09D00AE0B8
:1045D000FF1D27F00707F7E8020108E032E01FE0BF
:1045E00020E000B2C117042B01D140B2C117031E55
:1045F00071F1000307DA4FF0000CD0EB0C006CEB0C
:1046000001012D2302E0230504D52B238DF824304E
:10461000012303E0E30701D02023F7E7984658E0A1
:104620000A2110E010210EE010204FF0000B08903E
:104630000CE010214FF0000B44F004044FF0080987
:10464000089103E008214FF0000B0891C4F30253D6
:10465000022B04D001CF0021032B06D006E0FF1D62
:1046600027F00707F7E8020103E080B2042B00D12E
:10467000C0B24FF0000823072BD5702A07D0DDF811
:1046800020C08CF0100C5CEA0B0C05D00EE040232F
:104690008DF82430012308E050EA010306D03023CE
:1046A0008DF824308DF8252002239846DDF820C0AF
:1046B0008CF0080C5CEA0B0C0BD150EA010301D121
:1046C000630706D530238DF824304FF00108A9F197
:1046D0000109582A04D038A20B9208AA0A920BE0CA
:1046E0003AA2F9E75B46089AFCF7A6F80B9B9B5C9D
:1046F0000A9A521E0A92137050EA0102F2D10A98E5
:10470000ADEB000000F1200B600702D524F48034EB
:1047100001E04FF00109D94502DDA9EB0B0000E0F3
:10472000002000EB0B0141440890AAEB010AE003D2
:1047300006D4DDE90F232146504600F063F8064415
:104740004FF0000908E009A911F80900DDE90F128E
:10475000904709F10109761CC145F4DBE0030CD553
:10476000DDE90F232146504600F04CF8064404E0F2
:10477000DDE90F1230209047761C0899481E0890FA
:104780000029F5DC08E00A980A990078491C0A918A
:10479000DDE90F129047761CBBF10001ABF1010B74
:1047A000F1DC21465046DDE90F2300F019F80644FC
:1047B0006D1C1BE6092801003031323334353637A1
:1047C000383961626364656600000000303132335D
:1047D00034353637383941424344454600000000FD
:1047E0002DE9F041044600251E461746880404D4EE
:1047F00005E039462020B0476D1C641EF9D52846D7
:10480000BDE8F0812DE9F041044600251E469046A2
:10481000C80301D5302700E02027880404D505E02F
:1048200041463846B0476D1C641EF9D52846BDE8A0
:10483000F08100002DE9FE4F06460F460025684630
:1048400001F0E0F9002442E056F8240057F8241063
:10485000A0EB010ABAF1000F01DB514601E0CAF1F9
:1048600000010846FBF732FF83464FF08F41FBF70C
:1048700067FD80465DF824000021FBF7C9FF16D0D4
:104880005DF824104046FBF75BFD82464FF07E51F9
:10489000FBF71EFD814629F0004A0F48416A504649
:1048A000FBF7C0FF12D20120A04005430EE00A48EA
:1048B000C1694046FBF7ACFF05D30748016A404693
:1048C000FBF7B0FF02D20120A0400543641C032C7B
:1048D000BADB2846BDE8FE8FBC8A00082DE9F04D02
:1048E0008D4F21F0004A86B005460C46BA452ADBBA
:1048F000AAEB070028430AD08848824501DC1AD178
:10490000CDB106B02846BDE8F04DFFF731BD844A71
:10491000844B2846FBF7F9FD07460E46824A834B37
:1049200028462146FBF7F1FD06B03A463346BDE87E
:10493000F04DFBF743BD0120FFF744FD06B0BDE895
:10494000F04DFFF71ABD7A48824542DABAF1795F35
:104950000BDA2846FFF79AFC042808BFFFF71AFD78
:10496000284606B02146BDE8F08D2A460B46104683
:10497000FBF7CBFD834602466E480E460B460621EA
:104980007844FFF797FC5A463346FBF7BEFD804656
:1049900069488A465A46334604217844FFF78AFC20
:1049A0005A463346FBF7B1FD00223B46FBF706FDB6
:1049B00002460B4640465146FBF719FE2A4623465F
:1049C000FBF7A3FD06B02A462346BDE8F04DFBF7F2
:1049D000F5BC284624F0004100223D463B46FBF74B
:1049E00091FD4FF0FF32FCF71DF806460246534892
:1049F0000F460B4606217844FFF75CFC32463B46E7
:104A0000FBF783FDCDE900014D4832463B460421CA
:104A10007844FFF74FFC32463B46FBF776FD002219
:104A20002B46FBF7CBFC834602913046394603F018
:104A300047FF804643480D46504517DCDDE900013D
:104A40005A46029BFBF7D3FD42462B46FBF75DFD22
:104A500042462B46FBF7B2FC0122FBF7E3FF304A4C
:104A6000304BFBF74CFD304A304B4CE04FF0000A26
:104A700052460B464046FBF7A1FCCDE903105246D7
:104A80002B4610461946FBF740FD32463B46FBF7E6
:104A900039FDDDE90332FBF7AAFD06460F46DDE9E5
:104AA00000015A46029BFBF7A2FD834600910122BA
:104AB00030463946FBF7B6FF194A1A4BFBF722FD81
:104AC00006460F46012240462946FBF7ABFF5A46F1
:104AD000009BFBF71AFD32463B46FBF710FD0646EE
:104AE0000F46012250462946FBF79CFF0E4DDFF88A
:104AF00058802A464346FBF705FD32463B46FBF706
:104B000001FD2A464346FBF7FDFC002CD8BF81F08F
:104B1000004106B0BDE8F08D0000F03F0000F07FDE
:104B2000075C143326A6913C182D4454FB21F93F11
:104B30000000E03F5C4D0000724D0000E64C0000BC
:104B4000FC4C00003333EF3FFB21E93F2DE9F84FE8
:104B500004460D4621F0004000917349814211DC6A
:104B60007249884201DC06D12CB120462946BDE8B5
:104B7000F84FFFF7FDBB6E48002DCCBF6D496E4965
:104B8000BDE8F88F6D49814211DD6D498142D8BF82
:104B90004FF0FF366DDD20462946FFF777FB0428EE
:104BA00008BFFFF7F7FB20462946BDE8F88F6549A7
:104BB000654F25F00045814233DD6449814219DDAE
:104BC000002632464FF0804320462946FBF7F6FB8D
:104BD00080468A46012220462946FBF723FF002211
:104BE0003B46FBF78CFC42465346FBF700FD044670
:104BF0000D463EE001260022BA463B4620462946A5
:104C0000FBF7DCFB80460F46002253462046294630
:104C1000FBF775FC42463B46FBF7E9FC04460D46B4
:104C200027E04B4981421BDDDFF828A10226002244
:104C3000534620462946FBF768FC00223B46FBF71B
:104C4000BDFB80460F460022534620462946FBF70F
:104C500056FC42463B46FBF7CAFC04460D4608E0BC
:104C6000032622462B4600203B49FBF7C0FC0446A6
:104C70000D4622462B4610461946FBF746FC8B464E
:104C8000824602460B46FBF740FC07460246334885
:104C900088460B4606217844FFF70CFB52465B46DC
:104CA000FBF733FC82462E488B463A4643460521A5
:104CB0007844FFF7FFFA3A464346FBF726FC0246E4
:104CC0000B46002E504659460CDAFBF777FB22467E
:104CD0002B46FBF71AFC01B022462B46BDE8F04FED
:104CE000FBF710BCFBF76AFB22462B46FBF70DFCDB
:104CF0001C4A7A4402EBC603D3E90023FBF7FFFB0F
:104D000022462B46FBF7FBFB174A7A4402EBC6030D
:104D1000D3E90023FBF7F6FB009A002AB8BF81F025
:104D20000041BDE8F88F0000000010440000F07F53
:104D3000182D4454FB21F93FFB21F9BF0000DC3F53
:104D40000000203E0000F33F0000F03F0000E63F7F
:104D5000008003400000F83F0000F0BF864B0000D9
:104D6000444B0000E24A0000AA4A00002DE9F04D41
:104D70009446CCF1000423F000464CEA0404524F60
:104D800046EAD4749A46884621F00042BC4206D8CE
:104D9000454240EA050442EAD474BC4204D9BDE865
:104DA000F04D6246FFF7E7BAAAF14055A5F17F65DD
:104DB00055EA0C040BD0022404EAAA74434DDFF830
:104DC00010E144EAD87452EA000B04D00CE0BDE8CC
:104DD000F04DFFF7BBBE002C14BF012CBDE8F08DD9
:104DE000022C30D0032C32D056EA0C0B0AD0BE4233
:104DF00020D1BA4209D126F0804622F080423346C3
:104E0000114617E000291ADB25E0DFF8C8B0FB44A3
:104E1000002C04BFDBE90001BDE8F08D012C02BFCE
:104E2000DBE9000181F00041BDE8F08D022C0AD0E1
:104E3000032C0CD0BA4212D1B8F1000F0BDA234880
:104E40002549BDE8F08D28462449BDE8F08D284667
:104E50007146BDE8F08D1D482149BDE8F08D921BDB
:104E600012153C2AC4BF19481D490EDCBAF1000FC7
:104E7000BEBF12F13C0F0020014606DB6246FBF785
:104E8000B6FB21F00041FFF761FE002C08BFBDE832
:104E9000F08D012C04BF81F00041BDE8F08D114A76
:104EA000114B022C07D0FBF72AFB2A46BDE8F04D38
:104EB0000A4BFBF724BBFBF722FB2A46BDE8F04D6B
:104EC000064BFBF71FBB00000000F07F182D445479
:104ED000FB2109C03E4A0000FB21F9BFFB2109402C
:104EE000FB21F93F075C143326A6A13C2DE9F041D4
:104EF0000446E07800F0C006E07800F03F056078F6
:104F000000F0010098B1EF102846E91705EB517148
:104F1000C910A5EBC101491C01F0FF080B4800684E
:104F200020B10A48414602683846904700BF607881
:104F300000F0080030B10548406818B1B011034ACC
:104F4000516888470020BDE8F0810000440200203D
:104F500010B56FF00400FDF703FD0A4800680A4928
:104F6000B0FBF1F0094908700846007800EB4001F9
:104F7000C1EBC0104FF6FF7101EAC0000449088080
:104F800010BD00000000002000127A004400002044
:104F9000460000200146114A12884A434FF0E023A0
:104FA0005A6100229A611A46126942F001021A619E
:104FB00000BF4FF0E022106900F001021AB100F4C6
:104FC0008032002AF5D04FF0E022126922F001026F
:104FD0004FF0E0231A6100229A61704746000020DA
:104FE0000146114A12784A434FF0E0235A610022E9
:104FF0009A611A46126942F001021A6100BF4FF02D
:10500000E022106900F001021AB100F48032002A97
:10501000F5D04FF0E022126922F001024FF0E023B8
:105020001A6100229A6170474400002038B5044696
:1050300064B120208DF8000028208DF80100302078
:105040008DF8020038208DF8030004E0A32204212B
:105050006846FBF7CCF86A46042140F69E2002F031
:1050600033FC02F01DF838BD3EB5044602208DF831
:105070000000CA208DF80100E3208DF8020009200D
:105080008DF803006A460421682002F01DFCA3206D
:105090008DF8000004F0400048B1C0208DF80100F8
:1050A000C8208DF80200C2208DF8030006E0A3207E
:1050B0008DF801008DF802008DF8030004F4C07033
:1050C00048B1C4208DF80400CC208DF80500C6201E
:1050D0008DF8060006E0A3208DF804008DF8050089
:1050E0008DF80600A3208DF807008DF808008DF8D4
:1050F00009006A460A2140F6A72002F0E5FB04F009
:10510000030018B120208DF8000002E0D8208DF8AF
:1051100000006A46012140F6B62002F0D5FB04F0FB
:10512000200018B1012000F0ADF802E0002000F0EE
:10513000A9F804F4C07008B304F4807060B1B22020
:105140008DF800008B208DF80100B6208DF802004C
:105150009B208DF803000BE0B0208DF8000080202C
:105160008DF80100B4208DF8020090208DF8030026
:105170006A46042140F6A22002F0A6FB04F00100DA
:1051800020B3F8208DF800006A4601214FF40B602F
:1051900002F09AFBFA21072000F02CFC072000F017
:1051A000F3FB012000F013FC642000F0F3FC4FF44B
:1051B000FA7000F002FDC821304800F0A3FB28205F
:1051C00000F0BCFB0A2000F0CCFB08E0D8208DF8F2
:1051D00000006A4601214FF40B6002F075FB04F0F9
:1051E000020018B1D9208DF8000002E0D8208DF817
:1051F00000006A46012140F23D7002F065FB04F0B8
:10520000040018B1012000F069F802E0002000F06D
:1052100065F804F0100018B10120FFF707FF02E065
:105220000020FFF703FF44F008001549488101F012
:1052300037FF00201249887304F0400018B1084677
:10524000807B801D887304F4C07020B10C48807B83
:10525000801D0B49887304F0140020B10848807B3E
:1052600010300749887304F0030020B10448807BA4
:10527000001D0349887300203EBD000009E3CA02F7
:10528000440200203EB504466CB10EA1D1E90020D5
:105290008968CDE9002002916A4609214FF49760A0
:1052A00002F012FB3EBD0AA2D2E900109268CDE9DD
:1052B000010200916A4609214FF4976002F004FB55
:1052C000F0E70000B8AAB38DB4980D355D0000007A
:1052D000B8AAAAAAB088C3C5C700000038B504465A
:1052E00064B1C0208DF80000C2208DF80100C420F8
:1052F0008DF80200C6208DF8030004E08B22042103
:105300006846FAF774FF6A46042140F6982002F0D6
:10531000DBFA01F0C5FE38BD10B5C8234FF480623A
:10532000024940F6F63001F04FFD10BDE48A000856
:105330002DE9F04F8DB00746884615469946DDE9C0
:10534000166B0024002030806B49887B5A4605A9E3
:1053500001F006FE18B1601E0DB0BDE8F08F664882
:10536000807A00F01400002867D09DF81400000631
:105370009DF8151040EA01409DF8161040EA012002
:105380009DF81710084328609DF8180000069DF846
:10539000191040EA01409DF81A1040EA01209DF8DA
:1053A0001B10084368609DF81C0000069DF81D1046
:1053B00040EA01409DF81E1040EA01209DF81F10B0
:1053C0000843A8609DF8200000069DF8211040EADF
:1053D00001409DF8221040EA01209DF82310084367
:1053E000E86004F11000C4B22868001401906868F5
:1053F00000140290A86800140390E8680014049058
:1054000001984043029901FB0100039901FB01004F
:10541000049901FB010ABAF1706F02DBBAF1885FEF
:1054200005DD01F03DFE00203080401E94E7B6F916
:10543000000040F48070308000BF2F48807A00F078
:10544000400020B305A9601C085C095D40EA01200A
:1054500000B2A8F8000005A9E01C095C05AAA01C80
:10546000105C41EA002000B2A8F8020005A9601D06
:10547000095C201D105C41EA002000B2A8F804007D
:10548000A01DC4B2B6F9000040F0080030801A48F0
:10549000408900F4C07008B305A9601C085C095D70
:1054A00040EA012000B2388005A9E01C095C05AA89
:1054B000A01C105C41EA002000B2788005A9601DA4
:1054C000095C201D105C41EA002000B2B880A01DDC
:1054D000C4B2B6F9000040F0700030800648807A0F
:1054E00000F0030018B105A90819FFF7FFFC4846B2
:1054F00001F0B2F800202FE74402002070B588B018
:10550000064601A801F0B4FABDF804000021C90361
:1055100041EA5045C4034448007A00F0030056F8BD
:10552000200005904048007A00F0040010B1059872
:10553000404205903C48007AC0F3C10056F8200074
:1055400006903948007A00F0200010B106984042D9
:1055500006903548007AC0F3811056F82000079075
:105560003148008900F4807010B1079840420790DC
:105570000598C117A0FB042301FB043100FB0510B3
:10558000810041EA927005900698C117A0FB0423A0
:1055900001FB043100FB0510810041EA9270069086
:1055A0000798C117A0FB042301FB043100FB051081
:1055B000810041EA927007900598000E8DF808006E
:1055C0000598000C8DF809000598000A8DF80A006E
:1055D0000598C0B28DF80B000698000E8DF80C00EF
:1055E0000698000C8DF80D000698000A8DF80E0044
:1055F0000698C0B28DF80F000798000E8DF81000C5
:105600000798000C8DF811000798000A8DF8120019
:105610000798C0B28DF8130002AA0C214FF4257030
:1056200002F052F908B070BD4402002030B585B0D8
:10563000044616A207CA02AB07C3C82C03DD4FF00D
:10564000FF3005B030BDC82090FBF4F0401E85B29D
:10565000280A8DF80000E8B28DF801006A460221A0
:1056600040F2162002F030F910B14FF0FF30E8E7B9
:1056700002AA0C2140F6C12002F026F910B14FF029
:10568000FF30DEE7044884810020DAE7FEF2ABC495
:10569000AAF1DFDFBBAFDFDF440200201FB5044605
:1056A0004848007A00F0030054F820000190454873
:1056B000007A00F0040010B1019840420190414886
:1056C000007AC0F3C10054F8200002903D48007AEF
:1056D00000F0200010B10298404202903948007A50
:1056E000C0F3811054F8200003903648008900F47C
:1056F000807010B10398404203903349019880FBB9
:105700000101800F40EA810001902F49029880FB3F
:105710000110820042EA917002902B49039880FBAD
:105720000110820042EA917003900198000E8DF8FA
:1057300000000198000C8DF801000198000A8DF816
:1057400002000198C0B28DF803006A4604214FF4AC
:10575000747002F0B9F818B14FF0FF3004B010BD0A
:105760000298000E8DF800000298000C8DF80100E0
:105770000298000A8DF802000298C0B28DF803006A
:105780006A4604214FF4757002F09EF810B14FF094
:10579000FF30E3E70398000E8DF800000398000C3B
:1057A0008DF801000398000A8DF802000398C0B23A
:1057B0008DF803006A4604214FF4767002F084F8F5
:1057C000CCE700004402002009E3CA0210B586B00D
:1057D000044647A00068039046A00068029046A0D7
:1057E0000068019045A00068009004F0030003A940
:1057F000085C8DF8140003A8C4F3C101405C8DF867
:10580000150003A8C4F38111405C8DF8160004F064
:10581000030002A9085C8DF8100002A8C4F3C101BE
:10582000405C8DF8110002A8C4F38111405C8DF832
:10583000120005AA032140F2264002F045F818B1F3
:105840004FF0FF3006B010BD04AA032140F22A40F9
:1058500002F03AF810B14FF0FF30F3E701980590ED
:105860000098049004F0040058B19DF8140040F032
:1058700001008DF814009DF8100040F001008DF833
:10588000100004F0200058B19DF8150040F0010010
:105890008DF815009DF8110040F001008DF8110001
:1058A00004F4807058B19DF8160040F001008DF8A6
:1058B00016009DF8120040F001008DF8120005AAB4
:1058C00003214FF4886001F0FFFF10B14FF0FF306B
:1058D000B8E704AA032140F2314001F0F5FF10B10E
:1058E0004FF0FF30AEE7064804810020AAE7000031
:1058F0004CCD6C000CC92C0036567600264666004E
:1059000044020020F8B505460E464FF47A7095FB28
:10591000F0F000FB06F4200E8DF80000200C8DF84E
:105920000100200A8DF80200E0B28DF803006A46FB
:1059300004214FF4AE7001F0C7FFF8BD38B504463E
:10594000052094FBF0F084B220128DF80000E0B244
:105950008DF801006A4602214FF4AD7001F0B4FFEA
:1059600038BD38B50446052094FBF0F084B220120F
:105970008DF80000E0B28DF801006A4602214FF474
:10598000AC7001F0A1FF38BD38B50446002000908E
:1059900004F0010020B19DF8000040F030000090BC
:1059A00004F0020020B19DF8000040F00C000090CF
:1059B00004F0040020B19DF8000040F003000090C6
:1059C0006A4601214FF4A47001F07EFF38BD38B55E
:1059D0000446012C01DA012402E0042C00DD042439
:1059E000601EC0B200906A46012140F24F1001F0E3
:1059F0006BFF38BD2DE9FC4706460F4606F0070051
:105A000010B1B7F5C86F03DD4FF0FF30BDE8FC877C
:105A10003846FAF764FE81465949FAF791FC804608
:105A2000684600F0FFFF9DF80000022806D0042819
:105A300016D0082826D0102848D135E04FF08D41E7
:105A40004046FAF74BFC8146FAF785FE84B24D4991
:105A50004046FAF743FC8146FAF77DFE85B238E00E
:105A60004FF08C414046FAF739FC8146FAF773FE55
:105A700084B245494046FAF731FC8146FAF76BFE9D
:105A800085B226E04FF08B414046FAF727FC81466D
:105A9000FAF761FE84B23D494046FAF71FFC8146A1
:105AA000FAF759FE85B214E04FF08A414046FAF702
:105AB00015FC8146FAF74FFE84B235494046FAF7A5
:105AC0000DFC8146FAF747FE85B202E04FF0FF3049
:105AD0009CE700BF20128DF80400E0B28DF80500AD
